{
    "_format": "hh-sol-artifact-1",
    "contractName": "NFTmint",
    "sourceName": "contracts/NFTmint.sol",
    "abi": [
        {
            "inputs": [],
            "stateMutability": "payable",
            "type": "constructor"
        },
        {
            "anonymous": false,
            "inputs": [
                {
                    "indexed": true,
                    "internalType": "address",
                    "name": "owner",
                    "type": "address"
                },
                {
                    "indexed": true,
                    "internalType": "address",
                    "name": "approved",
                    "type": "address"
                },
                {
                    "indexed": true,
                    "internalType": "uint256",
                    "name": "tokenId",
                    "type": "uint256"
                }
            ],
            "name": "Approval",
            "type": "event"
        },
        {
            "anonymous": false,
            "inputs": [
                {
                    "indexed": true,
                    "internalType": "address",
                    "name": "owner",
                    "type": "address"
                },
                {
                    "indexed": true,
                    "internalType": "address",
                    "name": "operator",
                    "type": "address"
                },
                {
                    "indexed": false,
                    "internalType": "bool",
                    "name": "approved",
                    "type": "bool"
                }
            ],
            "name": "ApprovalForAll",
            "type": "event"
        },
        {
            "anonymous": false,
            "inputs": [
                {
                    "indexed": true,
                    "internalType": "address",
                    "name": "previousOwner",
                    "type": "address"
                },
                {
                    "indexed": true,
                    "internalType": "address",
                    "name": "newOwner",
                    "type": "address"
                }
            ],
            "name": "OwnershipTransferred",
            "type": "event"
        },
        {
            "anonymous": false,
            "inputs": [
                {
                    "indexed": true,
                    "internalType": "address",
                    "name": "from",
                    "type": "address"
                },
                {
                    "indexed": true,
                    "internalType": "address",
                    "name": "to",
                    "type": "address"
                },
                {
                    "indexed": true,
                    "internalType": "uint256",
                    "name": "tokenId",
                    "type": "uint256"
                }
            ],
            "name": "Transfer",
            "type": "event"
        },
        {
            "inputs": [
                {
                    "internalType": "address",
                    "name": "to",
                    "type": "address"
                },
                {
                    "internalType": "uint256",
                    "name": "tokenId",
                    "type": "uint256"
                }
            ],
            "name": "approve",
            "outputs": [],
            "stateMutability": "nonpayable",
            "type": "function"
        },
        {
            "inputs": [
                {
                    "internalType": "address",
                    "name": "owner",
                    "type": "address"
                }
            ],
            "name": "balanceOf",
            "outputs": [
                {
                    "internalType": "uint256",
                    "name": "",
                    "type": "uint256"
                }
            ],
            "stateMutability": "view",
            "type": "function"
        },
        {
            "inputs": [
                {
                    "internalType": "uint256",
                    "name": "tokenId",
                    "type": "uint256"
                }
            ],
            "name": "getApproved",
            "outputs": [
                {
                    "internalType": "address",
                    "name": "",
                    "type": "address"
                }
            ],
            "stateMutability": "view",
            "type": "function"
        },
        {
            "inputs": [
                {
                    "internalType": "address",
                    "name": "owner",
                    "type": "address"
                },
                {
                    "internalType": "address",
                    "name": "operator",
                    "type": "address"
                }
            ],
            "name": "isApprovedForAll",
            "outputs": [
                {
                    "internalType": "bool",
                    "name": "",
                    "type": "bool"
                }
            ],
            "stateMutability": "view",
            "type": "function"
        },
        {
            "inputs": [],
            "name": "isPublicMintEnabled",
            "outputs": [
                {
                    "internalType": "bool",
                    "name": "",
                    "type": "bool"
                }
            ],
            "stateMutability": "view",
            "type": "function"
        },
        {
            "inputs": [],
            "name": "maxPerWallet",
            "outputs": [
                {
                    "internalType": "uint256",
                    "name": "",
                    "type": "uint256"
                }
            ],
            "stateMutability": "view",
            "type": "function"
        },
        {
            "inputs": [],
            "name": "maxSupply",
            "outputs": [
                {
                    "internalType": "uint256",
                    "name": "",
                    "type": "uint256"
                }
            ],
            "stateMutability": "view",
            "type": "function"
        },
        {
            "inputs": [
                {
                    "internalType": "uint256",
                    "name": "quantity_",
                    "type": "uint256"
                }
            ],
            "name": "mint",
            "outputs": [],
            "stateMutability": "payable",
            "type": "function"
        },
        {
            "inputs": [],
            "name": "mintPrice",
            "outputs": [
                {
                    "internalType": "uint256",
                    "name": "",
                    "type": "uint256"
                }
            ],
            "stateMutability": "view",
            "type": "function"
        },
        {
            "inputs": [],
            "name": "name",
            "outputs": [
                {
                    "internalType": "string",
                    "name": "",
                    "type": "string"
                }
            ],
            "stateMutability": "view",
            "type": "function"
        },
        {
            "inputs": [],
            "name": "owner",
            "outputs": [
                {
                    "internalType": "address",
                    "name": "",
                    "type": "address"
                }
            ],
            "stateMutability": "view",
            "type": "function"
        },
        {
            "inputs": [
                {
                    "internalType": "uint256",
                    "name": "tokenId",
                    "type": "uint256"
                }
            ],
            "name": "ownerOf",
            "outputs": [
                {
                    "internalType": "address",
                    "name": "",
                    "type": "address"
                }
            ],
            "stateMutability": "view",
            "type": "function"
        },
        {
            "inputs": [],
            "name": "renounceOwnership",
            "outputs": [],
            "stateMutability": "nonpayable",
            "type": "function"
        },
        {
            "inputs": [
                {
                    "internalType": "address",
                    "name": "from",
                    "type": "address"
                },
                {
                    "internalType": "address",
                    "name": "to",
                    "type": "address"
                },
                {
                    "internalType": "uint256",
                    "name": "tokenId",
                    "type": "uint256"
                }
            ],
            "name": "safeTransferFrom",
            "outputs": [],
            "stateMutability": "nonpayable",
            "type": "function"
        },
        {
            "inputs": [
                {
                    "internalType": "address",
                    "name": "from",
                    "type": "address"
                },
                {
                    "internalType": "address",
                    "name": "to",
                    "type": "address"
                },
                {
                    "internalType": "uint256",
                    "name": "tokenId",
                    "type": "uint256"
                },
                {
                    "internalType": "bytes",
                    "name": "data",
                    "type": "bytes"
                }
            ],
            "name": "safeTransferFrom",
            "outputs": [],
            "stateMutability": "nonpayable",
            "type": "function"
        },
        {
            "inputs": [
                {
                    "internalType": "address",
                    "name": "operator",
                    "type": "address"
                },
                {
                    "internalType": "bool",
                    "name": "approved",
                    "type": "bool"
                }
            ],
            "name": "setApprovalForAll",
            "outputs": [],
            "stateMutability": "nonpayable",
            "type": "function"
        },
        {
            "inputs": [
                {
                    "internalType": "string",
                    "name": "baseTokenUri_",
                    "type": "string"
                }
            ],
            "name": "setBaseTokenUri",
            "outputs": [],
            "stateMutability": "nonpayable",
            "type": "function"
        },
        {
            "inputs": [
                {
                    "internalType": "bool",
                    "name": "isPublicMintEnabled_",
                    "type": "bool"
                }
            ],
            "name": "setIsPublicMintEnabled",
            "outputs": [],
            "stateMutability": "nonpayable",
            "type": "function"
        },
        {
            "inputs": [
                {
                    "internalType": "bytes4",
                    "name": "interfaceId",
                    "type": "bytes4"
                }
            ],
            "name": "supportsInterface",
            "outputs": [
                {
                    "internalType": "bool",
                    "name": "",
                    "type": "bool"
                }
            ],
            "stateMutability": "view",
            "type": "function"
        },
        {
            "inputs": [],
            "name": "symbol",
            "outputs": [
                {
                    "internalType": "string",
                    "name": "",
                    "type": "string"
                }
            ],
            "stateMutability": "view",
            "type": "function"
        },
        {
            "inputs": [
                {
                    "internalType": "uint256",
                    "name": "tokenId_",
                    "type": "uint256"
                }
            ],
            "name": "tokenURI",
            "outputs": [
                {
                    "internalType": "string",
                    "name": "",
                    "type": "string"
                }
            ],
            "stateMutability": "view",
            "type": "function"
        },
        {
            "inputs": [],
            "name": "totalSupply",
            "outputs": [
                {
                    "internalType": "uint256",
                    "name": "",
                    "type": "uint256"
                }
            ],
            "stateMutability": "view",
            "type": "function"
        },
        {
            "inputs": [
                {
                    "internalType": "address",
                    "name": "from",
                    "type": "address"
                },
                {
                    "internalType": "address",
                    "name": "to",
                    "type": "address"
                },
                {
                    "internalType": "uint256",
                    "name": "tokenId",
                    "type": "uint256"
                }
            ],
            "name": "transferFrom",
            "outputs": [],
            "stateMutability": "nonpayable",
            "type": "function"
        },
        {
            "inputs": [
                {
                    "internalType": "address",
                    "name": "newOwner",
                    "type": "address"
                }
            ],
            "name": "transferOwnership",
            "outputs": [],
            "stateMutability": "nonpayable",
            "type": "function"
        },
        {
            "inputs": [
                {
                    "internalType": "address",
                    "name": "",
                    "type": "address"
                }
            ],
            "name": "walletMints",
            "outputs": [
                {
                    "internalType": "uint256",
                    "name": "",
                    "type": "uint256"
                }
            ],
            "stateMutability": "view",
            "type": "function"
        },
        {
            "inputs": [],
            "name": "withdraw",
            "outputs": [],
            "stateMutability": "nonpayable",
            "type": "function"
        },
        {
            "inputs": [],
            "name": "withdrawWallet",
            "outputs": [
                {
                    "internalType": "address payable",
                    "name": "",
                    "type": "address"
                }
            ],
            "stateMutability": "view",
            "type": "function"
        }
    ],
    "bytecode": "0x60806040526040518060400160405280600781526020017f4e46546d696e74000000000000000000000000000000000000000000000000008152506040518060400160405280600281526020017f525000000000000000000000000000000000000000000000000000000000000081525081600090816200008191906200042b565b5080600190816200009391906200042b565b505050620000b6620000aa620000e360201b60201c565b620000eb60201b60201c565b66470de4df82000060078190555060006008819055506103e86009819055506003600a8190555062000512565b600033905090565b6000600660009054906101000a900473ffffffffffffffffffffffffffffffffffffffff16905081600660006101000a81548173ffffffffffffffffffffffffffffffffffffffff021916908373ffffffffffffffffffffffffffffffffffffffff1602179055508173ffffffffffffffffffffffffffffffffffffffff168173ffffffffffffffffffffffffffffffffffffffff167f8be0079c531659141344cd1fd0a4f28419497f9722a3daafe3b4186f6b6457e060405160405180910390a35050565b600081519050919050565b7f4e487b7100000000000000000000000000000000000000000000000000000000600052604160045260246000fd5b7f4e487b7100000000000000000000000000000000000000000000000000000000600052602260045260246000fd5b600060028204905060018216806200023357607f821691505b602082108103620002495762000248620001eb565b5b50919050565b60008190508160005260206000209050919050565b60006020601f8301049050919050565b600082821b905092915050565b600060088302620002b37fffffffffffffffffffffffffffffffffffffffffffffffffffffffffffffffff8262000274565b620002bf868362000274565b95508019841693508086168417925050509392505050565b6000819050919050565b6000819050919050565b60006200030c620003066200030084620002d7565b620002e1565b620002d7565b9050919050565b6000819050919050565b6200032883620002eb565b62000340620003378262000313565b84845462000281565b825550505050565b600090565b6200035762000348565b620003648184846200031d565b505050565b5b818110156200038c57620003806000826200034d565b6001810190506200036a565b5050565b601f821115620003db57620003a5816200024f565b620003b08462000264565b81016020851015620003c0578190505b620003d8620003cf8562000264565b83018262000369565b50505b505050565b600082821c905092915050565b60006200040060001984600802620003e0565b1980831691505092915050565b60006200041b8383620003ed565b9150826002028217905092915050565b6200043682620001b1565b67ffffffffffffffff811115620004525762000451620001bc565b5b6200045e82546200021a565b6200046b82828562000390565b600060209050601f831160018114620004a357600084156200048e578287015190505b6200049a85826200040d565b8655506200050a565b601f198416620004b3866200024f565b60005b82811015620004dd57848901518255600182019150602085019450602081019050620004b6565b86831015620004fd5784890151620004f9601f891682620003ed565b8355505b6001600288020188555050505b505050505050565b6136c180620005226000396000f3fe60806040526004361061019c5760003560e01c806370a08231116100ec578063a22cb4651161008a578063d5abeb0111610064578063d5abeb0114610593578063e985e9c5146105be578063f0293fd3146105fb578063f2fde38b146106385761019c565b8063a22cb46514610504578063b88d4fde1461052d578063c87b56dd146105565761019c565b80638da5cb5b116100c65780638da5cb5b1461046957806395652cfa1461049457806395d89b41146104bd578063a0712d68146104e85761019c565b806370a08231146103ea578063715018a61461042757806385d178f41461043e5761019c565b80632373ac221161015957806342842e0e1161013357806342842e0e1461032e578063453c2310146103575780636352211e146103825780636817c76c146103bf5761019c565b80632373ac22146102c557806323b872dd146102ee5780633ccfd60b146103175761019c565b80630116bc2d146101a157806301ffc9a7146101cc57806306fdde0314610209578063081812fc14610234578063095ea7b31461027157806318160ddd1461029a575b600080fd5b3480156101ad57600080fd5b506101b6610661565b6040516101c3919061203c565b60405180910390f35b3480156101d857600080fd5b506101f360048036038101906101ee91906120c3565b610674565b604051610200919061203c565b60405180910390f35b34801561021557600080fd5b5061021e610756565b60405161022b9190612180565b60405180910390f35b34801561024057600080fd5b5061025b600480360381019061025691906121d8565b6107e8565b6040516102689190612246565b60405180910390f35b34801561027d57600080fd5b506102986004803603810190610293919061228d565b61082e565b005b3480156102a657600080fd5b506102af610945565b6040516102bc91906122dc565b60405180910390f35b3480156102d157600080fd5b506102ec60048036038101906102e79190612323565b61094b565b005b3480156102fa57600080fd5b5061031560048036038101906103109190612350565b610970565b005b34801561032357600080fd5b5061032c6109d0565b005b34801561033a57600080fd5b5061035560048036038101906103509190612350565b610aa9565b005b34801561036357600080fd5b5061036c610ac9565b60405161037991906122dc565b60405180910390f35b34801561038e57600080fd5b506103a960048036038101906103a491906121d8565b610acf565b6040516103b69190612246565b60405180910390f35b3480156103cb57600080fd5b506103d4610b55565b6040516103e191906122dc565b60405180910390f35b3480156103f657600080fd5b50610411600480360381019061040c91906123a3565b610b5b565b60405161041e91906122dc565b60405180910390f35b34801561043357600080fd5b5061043c610c12565b005b34801561044a57600080fd5b50610453610c26565b60405161046091906123f1565b60405180910390f35b34801561047557600080fd5b5061047e610c4c565b60405161048b9190612246565b60405180910390f35b3480156104a057600080fd5b506104bb60048036038101906104b69190612471565b610c76565b005b3480156104c957600080fd5b506104d2610c94565b6040516104df9190612180565b60405180910390f35b61050260048036038101906104fd91906121d8565b610d26565b005b34801561051057600080fd5b5061052b600480360381019061052691906124be565b610efd565b005b34801561053957600080fd5b50610554600480360381019061054f919061262e565b610f13565b005b34801561056257600080fd5b5061057d600480360381019061057891906121d8565b610f75565b60405161058a9190612180565b60405180910390f35b34801561059f57600080fd5b506105a8610ff1565b6040516105b591906122dc565b60405180910390f35b3480156105ca57600080fd5b506105e560048036038101906105e091906126b1565b610ff7565b6040516105f2919061203c565b60405180910390f35b34801561060757600080fd5b50610622600480360381019061061d91906123a3565b61108b565b60405161062f91906122dc565b60405180910390f35b34801561064457600080fd5b5061065f600480360381019061065a91906123a3565b6110a3565b005b600b60009054906101000a900460ff1681565b60007f80ac58cd000000000000000000000000000000000000000000000000000000007bffffffffffffffffffffffffffffffffffffffffffffffffffffffff1916827bffffffffffffffffffffffffffffffffffffffffffffffffffffffff1916148061073f57507f5b5e139f000000000000000000000000000000000000000000000000000000007bffffffffffffffffffffffffffffffffffffffffffffffffffffffff1916827bffffffffffffffffffffffffffffffffffffffffffffffffffffffff1916145b8061074f575061074e82611126565b5b9050919050565b60606000805461076590612720565b80601f016020809104026020016040519081016040528092919081815260200182805461079190612720565b80156107de5780601f106107b3576101008083540402835291602001916107de565b820191906000526020600020905b8154815290600101906020018083116107c157829003601f168201915b5050505050905090565b60006107f382611190565b6004600083815260200190815260200160002060009054906101000a900473ffffffffffffffffffffffffffffffffffffffff169050919050565b600061083982610acf565b90508073ffffffffffffffffffffffffffffffffffffffff168373ffffffffffffffffffffffffffffffffffffffff16036108a9576040517f08c379a00000000000000000000000000000000000000000000000000000000081526004016108a0906127c3565b60405180910390fd5b8073ffffffffffffffffffffffffffffffffffffffff166108c86111db565b73ffffffffffffffffffffffffffffffffffffffff1614806108f757506108f6816108f16111db565b610ff7565b5b610936576040517f08c379a000000000000000000000000000000000000000000000000000000000815260040161092d90612855565b60405180910390fd5b61094083836111e3565b505050565b60085481565b61095361129c565b80600b60006101000a81548160ff02191690831515021790555050565b61098161097b6111db565b8261131a565b6109c0576040517f08c379a00000000000000000000000000000000000000000000000000000000081526004016109b7906128e7565b60405180910390fd5b6109cb8383836113af565b505050565b6109d861129c565b6000600d60009054906101000a900473ffffffffffffffffffffffffffffffffffffffff1673ffffffffffffffffffffffffffffffffffffffff1647604051610a2090612938565b60006040518083038185875af1925050503d8060008114610a5d576040519150601f19603f3d011682016040523d82523d6000602084013e610a62565b606091505b5050905080610aa6576040517f08c379a0000000000000000000000000000000000000000000000000000000008152600401610a9d90612999565b60405180910390fd5b50565b610ac483838360405180602001604052806000815250610f13565b505050565b600a5481565b600080610adb836116a8565b9050600073ffffffffffffffffffffffffffffffffffffffff168173ffffffffffffffffffffffffffffffffffffffff1603610b4c576040517f08c379a0000000000000000000000000000000000000000000000000000000008152600401610b4390612a05565b60405180910390fd5b80915050919050565b60075481565b60008073ffffffffffffffffffffffffffffffffffffffff168273ffffffffffffffffffffffffffffffffffffffff1603610bcb576040517f08c379a0000000000000000000000000000000000000000000000000000000008152600401610bc290612a97565b60405180910390fd5b600360008373ffffffffffffffffffffffffffffffffffffffff1673ffffffffffffffffffffffffffffffffffffffff168152602001908152602001600020549050919050565b610c1a61129c565b610c2460006116e5565b565b600d60009054906101000a900473ffffffffffffffffffffffffffffffffffffffff1681565b6000600660009054906101000a900473ffffffffffffffffffffffffffffffffffffffff16905090565b610c7e61129c565b8181600c9182610c8f929190612c6e565b505050565b606060018054610ca390612720565b80601f0160208091040260200160405190810160405280929190818152602001828054610ccf90612720565b8015610d1c5780601f10610cf157610100808354040283529160200191610d1c565b820191906000526020600020905b815481529060010190602001808311610cff57829003601f168201915b5050505050905090565b600b60009054906101000a900460ff16610d75576040517f08c379a0000000000000000000000000000000000000000000000000000000008152600401610d6c90612d8a565b60405180910390fd5b60075481610d839190612dd9565b3414610dc4576040517f08c379a0000000000000000000000000000000000000000000000000000000008152600401610dbb90612e67565b60405180910390fd5b60095481600854610dd59190612e87565b1115610e16576040517f08c379a0000000000000000000000000000000000000000000000000000000008152600401610e0d90612f07565b60405180910390fd5b600a5481600e60003373ffffffffffffffffffffffffffffffffffffffff1673ffffffffffffffffffffffffffffffffffffffff16815260200190815260200160002054610e649190612e87565b1115610ea5576040517f08c379a0000000000000000000000000000000000000000000000000000000008152600401610e9c90612f73565b60405180910390fd5b60005b81811015610ef95760006001600854610ec19190612e87565b905060086000815480929190610ed690612f93565b9190505550610ee533826117ab565b508080610ef190612f93565b915050610ea8565b5050565b610f0f610f086111db565b83836117c9565b5050565b610f24610f1e6111db565b8361131a565b610f63576040517f08c379a0000000000000000000000000000000000000000000000000000000008152600401610f5a906128e7565b60405180910390fd5b610f6f84848484611935565b50505050565b6060610f8082611991565b610fbf576040517f08c379a0000000000000000000000000000000000000000000000000000000008152600401610fb690613027565b60405180910390fd5b600c610fca836119d2565b604051602001610fdb929190613152565b6040516020818303038152906040529050919050565b60095481565b6000600560008473ffffffffffffffffffffffffffffffffffffffff1673ffffffffffffffffffffffffffffffffffffffff16815260200190815260200160002060008373ffffffffffffffffffffffffffffffffffffffff1673ffffffffffffffffffffffffffffffffffffffff16815260200190815260200160002060009054906101000a900460ff16905092915050565b600e6020528060005260406000206000915090505481565b6110ab61129c565b600073ffffffffffffffffffffffffffffffffffffffff168173ffffffffffffffffffffffffffffffffffffffff160361111a576040517f08c379a0000000000000000000000000000000000000000000000000000000008152600401611111906131f3565b60405180910390fd5b611123816116e5565b50565b60007f01ffc9a7000000000000000000000000000000000000000000000000000000007bffffffffffffffffffffffffffffffffffffffffffffffffffffffff1916827bffffffffffffffffffffffffffffffffffffffffffffffffffffffff1916149050919050565b61119981611991565b6111d8576040517f08c379a00000000000000000000000000000000000000000000000000000000081526004016111cf90612a05565b60405180910390fd5b50565b600033905090565b816004600083815260200190815260200160002060006101000a81548173ffffffffffffffffffffffffffffffffffffffff021916908373ffffffffffffffffffffffffffffffffffffffff160217905550808273ffffffffffffffffffffffffffffffffffffffff1661125683610acf565b73ffffffffffffffffffffffffffffffffffffffff167f8c5be1e5ebec7d5bd14f71427d1e84f3dd0314c0f7b2291e5b200ac8c7c3b92560405160405180910390a45050565b6112a46111db565b73ffffffffffffffffffffffffffffffffffffffff166112c2610c4c565b73ffffffffffffffffffffffffffffffffffffffff1614611318576040517f08c379a000000000000000000000000000000000000000000000000000000000815260040161130f9061325f565b60405180910390fd5b565b60008061132683610acf565b90508073ffffffffffffffffffffffffffffffffffffffff168473ffffffffffffffffffffffffffffffffffffffff16148061136857506113678185610ff7565b5b806113a657508373ffffffffffffffffffffffffffffffffffffffff1661138e846107e8565b73ffffffffffffffffffffffffffffffffffffffff16145b91505092915050565b8273ffffffffffffffffffffffffffffffffffffffff166113cf82610acf565b73ffffffffffffffffffffffffffffffffffffffff1614611425576040517f08c379a000000000000000000000000000000000000000000000000000000000815260040161141c906132f1565b60405180910390fd5b600073ffffffffffffffffffffffffffffffffffffffff168273ffffffffffffffffffffffffffffffffffffffff1603611494576040517f08c379a000000000000000000000000000000000000000000000000000000000815260040161148b90613383565b60405180910390fd5b6114a18383836001611aa0565b8273ffffffffffffffffffffffffffffffffffffffff166114c182610acf565b73ffffffffffffffffffffffffffffffffffffffff1614611517576040517f08c379a000000000000000000000000000000000000000000000000000000000815260040161150e906132f1565b60405180910390fd5b6004600082815260200190815260200160002060006101000a81549073ffffffffffffffffffffffffffffffffffffffff02191690556001600360008573ffffffffffffffffffffffffffffffffffffffff1673ffffffffffffffffffffffffffffffffffffffff168152602001908152602001600020600082825403925050819055506001600360008473ffffffffffffffffffffffffffffffffffffffff1673ffffffffffffffffffffffffffffffffffffffff16815260200190815260200160002060008282540192505081905550816002600083815260200190815260200160002060006101000a81548173ffffffffffffffffffffffffffffffffffffffff021916908373ffffffffffffffffffffffffffffffffffffffff160217905550808273ffffffffffffffffffffffffffffffffffffffff168473ffffffffffffffffffffffffffffffffffffffff167fddf252ad1be2c89b69c2b068fc378daa952ba7f163c4a11628f55a4df523b3ef60405160405180910390a46116a38383836001611aa6565b505050565b60006002600083815260200190815260200160002060009054906101000a900473ffffffffffffffffffffffffffffffffffffffff169050919050565b6000600660009054906101000a900473ffffffffffffffffffffffffffffffffffffffff16905081600660006101000a81548173ffffffffffffffffffffffffffffffffffffffff021916908373ffffffffffffffffffffffffffffffffffffffff1602179055508173ffffffffffffffffffffffffffffffffffffffff168173ffffffffffffffffffffffffffffffffffffffff167f8be0079c531659141344cd1fd0a4f28419497f9722a3daafe3b4186f6b6457e060405160405180910390a35050565b6117c5828260405180602001604052806000815250611aac565b5050565b8173ffffffffffffffffffffffffffffffffffffffff168373ffffffffffffffffffffffffffffffffffffffff1603611837576040517f08c379a000000000000000000000000000000000000000000000000000000000815260040161182e906133ef565b60405180910390fd5b80600560008573ffffffffffffffffffffffffffffffffffffffff1673ffffffffffffffffffffffffffffffffffffffff16815260200190815260200160002060008473ffffffffffffffffffffffffffffffffffffffff1673ffffffffffffffffffffffffffffffffffffffff16815260200190815260200160002060006101000a81548160ff0219169083151502179055508173ffffffffffffffffffffffffffffffffffffffff168373ffffffffffffffffffffffffffffffffffffffff167f17307eab39ab6107e8899845ad3d59bd9653f200f220920489ca2b5937696c3183604051611928919061203c565b60405180910390a3505050565b6119408484846113af565b61194c84848484611b07565b61198b576040517f08c379a000000000000000000000000000000000000000000000000000000000815260040161198290613481565b60405180910390fd5b50505050565b60008073ffffffffffffffffffffffffffffffffffffffff166119b3836116a8565b73ffffffffffffffffffffffffffffffffffffffff1614159050919050565b6060600060016119e184611c8e565b01905060008167ffffffffffffffff811115611a00576119ff612503565b5b6040519080825280601f01601f191660200182016040528015611a325781602001600182028036833780820191505090505b509050600082602001820190505b600115611a95578080600190039150507f3031323334353637383961626364656600000000000000000000000000000000600a86061a8153600a8581611a8957611a886134a1565b5b04945060008503611a40575b819350505050919050565b50505050565b50505050565b611ab68383611de1565b611ac36000848484611b07565b611b02576040517f08c379a0000000000000000000000000000000000000000000000000000000008152600401611af990613481565b60405180910390fd5b505050565b6000611b288473ffffffffffffffffffffffffffffffffffffffff16611ffe565b15611c81578373ffffffffffffffffffffffffffffffffffffffff1663150b7a02611b516111db565b8786866040518563ffffffff1660e01b8152600401611b739493929190613525565b6020604051808303816000875af1925050508015611baf57506040513d601f19601f82011682018060405250810190611bac9190613586565b60015b611c31573d8060008114611bdf576040519150601f19603f3d011682016040523d82523d6000602084013e611be4565b606091505b506000815103611c29576040517f08c379a0000000000000000000000000000000000000000000000000000000008152600401611c2090613481565b60405180910390fd5b805181602001fd5b63150b7a0260e01b7bffffffffffffffffffffffffffffffffffffffffffffffffffffffff1916817bffffffffffffffffffffffffffffffffffffffffffffffffffffffff191614915050611c86565b600190505b949350505050565b600080600090507a184f03e93ff9f4daa797ed6e38ed64bf6a1f0100000000000000008310611cec577a184f03e93ff9f4daa797ed6e38ed64bf6a1f0100000000000000008381611ce257611ce16134a1565b5b0492506040810190505b6d04ee2d6d415b85acef81000000008310611d29576d04ee2d6d415b85acef81000000008381611d1f57611d1e6134a1565b5b0492506020810190505b662386f26fc100008310611d5857662386f26fc100008381611d4e57611d4d6134a1565b5b0492506010810190505b6305f5e1008310611d81576305f5e1008381611d7757611d766134a1565b5b0492506008810190505b6127108310611da6576127108381611d9c57611d9b6134a1565b5b0492506004810190505b60648310611dc95760648381611dbf57611dbe6134a1565b5b0492506002810190505b600a8310611dd8576001810190505b80915050919050565b600073ffffffffffffffffffffffffffffffffffffffff168273ffffffffffffffffffffffffffffffffffffffff1603611e50576040517f08c379a0000000000000000000000000000000000000000000000000000000008152600401611e47906135ff565b60405180910390fd5b611e5981611991565b15611e99576040517f08c379a0000000000000000000000000000000000000000000000000000000008152600401611e909061366b565b60405180910390fd5b611ea7600083836001611aa0565b611eb081611991565b15611ef0576040517f08c379a0000000000000000000000000000000000000000000000000000000008152600401611ee79061366b565b60405180910390fd5b6001600360008473ffffffffffffffffffffffffffffffffffffffff1673ffffffffffffffffffffffffffffffffffffffff16815260200190815260200160002060008282540192505081905550816002600083815260200190815260200160002060006101000a81548173ffffffffffffffffffffffffffffffffffffffff021916908373ffffffffffffffffffffffffffffffffffffffff160217905550808273ffffffffffffffffffffffffffffffffffffffff16600073ffffffffffffffffffffffffffffffffffffffff167fddf252ad1be2c89b69c2b068fc378daa952ba7f163c4a11628f55a4df523b3ef60405160405180910390a4611ffa600083836001611aa6565b5050565b6000808273ffffffffffffffffffffffffffffffffffffffff163b119050919050565b60008115159050919050565b61203681612021565b82525050565b6000602082019050612051600083018461202d565b92915050565b6000604051905090565b600080fd5b600080fd5b60007fffffffff0000000000000000000000000000000000000000000000000000000082169050919050565b6120a08161206b565b81146120ab57600080fd5b50565b6000813590506120bd81612097565b92915050565b6000602082840312156120d9576120d8612061565b5b60006120e7848285016120ae565b91505092915050565b600081519050919050565b600082825260208201905092915050565b60005b8381101561212a57808201518184015260208101905061210f565b60008484015250505050565b6000601f19601f8301169050919050565b6000612152826120f0565b61215c81856120fb565b935061216c81856020860161210c565b61217581612136565b840191505092915050565b6000602082019050818103600083015261219a8184612147565b905092915050565b6000819050919050565b6121b5816121a2565b81146121c057600080fd5b50565b6000813590506121d2816121ac565b92915050565b6000602082840312156121ee576121ed612061565b5b60006121fc848285016121c3565b91505092915050565b600073ffffffffffffffffffffffffffffffffffffffff82169050919050565b600061223082612205565b9050919050565b61224081612225565b82525050565b600060208201905061225b6000830184612237565b92915050565b61226a81612225565b811461227557600080fd5b50565b60008135905061228781612261565b92915050565b600080604083850312156122a4576122a3612061565b5b60006122b285828601612278565b92505060206122c3858286016121c3565b9150509250929050565b6122d6816121a2565b82525050565b60006020820190506122f160008301846122cd565b92915050565b61230081612021565b811461230b57600080fd5b50565b60008135905061231d816122f7565b92915050565b60006020828403121561233957612338612061565b5b60006123478482850161230e565b91505092915050565b60008060006060848603121561236957612368612061565b5b600061237786828701612278565b935050602061238886828701612278565b9250506040612399868287016121c3565b9150509250925092565b6000602082840312156123b9576123b8612061565b5b60006123c784828501612278565b91505092915050565b60006123db82612205565b9050919050565b6123eb816123d0565b82525050565b600060208201905061240660008301846123e2565b92915050565b600080fd5b600080fd5b600080fd5b60008083601f8401126124315761243061240c565b5b8235905067ffffffffffffffff81111561244e5761244d612411565b5b60208301915083600182028301111561246a57612469612416565b5b9250929050565b6000806020838503121561248857612487612061565b5b600083013567ffffffffffffffff8111156124a6576124a5612066565b5b6124b28582860161241b565b92509250509250929050565b600080604083850312156124d5576124d4612061565b5b60006124e385828601612278565b92505060206124f48582860161230e565b9150509250929050565b600080fd5b7f4e487b7100000000000000000000000000000000000000000000000000000000600052604160045260246000fd5b61253b82612136565b810181811067ffffffffffffffff8211171561255a57612559612503565b5b80604052505050565b600061256d612057565b90506125798282612532565b919050565b600067ffffffffffffffff82111561259957612598612503565b5b6125a282612136565b9050602081019050919050565b82818337600083830152505050565b60006125d16125cc8461257e565b612563565b9050828152602081018484840111156125ed576125ec6124fe565b5b6125f88482856125af565b509392505050565b600082601f8301126126155761261461240c565b5b81356126258482602086016125be565b91505092915050565b6000806000806080858703121561264857612647612061565b5b600061265687828801612278565b945050602061266787828801612278565b9350506040612678878288016121c3565b925050606085013567ffffffffffffffff81111561269957612698612066565b5b6126a587828801612600565b91505092959194509250565b600080604083850312156126c8576126c7612061565b5b60006126d685828601612278565b92505060206126e785828601612278565b9150509250929050565b7f4e487b7100000000000000000000000000000000000000000000000000000000600052602260045260246000fd5b6000600282049050600182168061273857607f821691505b60208210810361274b5761274a6126f1565b5b50919050565b7f4552433732313a20617070726f76616c20746f2063757272656e74206f776e6560008201527f7200000000000000000000000000000000000000000000000000000000000000602082015250565b60006127ad6021836120fb565b91506127b882612751565b604082019050919050565b600060208201905081810360008301526127dc816127a0565b9050919050565b7f4552433732313a20617070726f76652063616c6c6572206973206e6f7420746f60008201527f6b656e206f776e6572206f7220617070726f76656420666f7220616c6c000000602082015250565b600061283f603d836120fb565b915061284a826127e3565b604082019050919050565b6000602082019050818103600083015261286e81612832565b9050919050565b7f4552433732313a2063616c6c6572206973206e6f7420746f6b656e206f776e6560008201527f72206f7220617070726f76656400000000000000000000000000000000000000602082015250565b60006128d1602d836120fb565b91506128dc82612875565b604082019050919050565b60006020820190508181036000830152612900816128c4565b9050919050565b600081905092915050565b50565b6000612922600083612907565b915061292d82612912565b600082019050919050565b600061294382612915565b9150819050919050565b7f7769746864726177206661696c65640000000000000000000000000000000000600082015250565b6000612983600f836120fb565b915061298e8261294d565b602082019050919050565b600060208201905081810360008301526129b281612976565b9050919050565b7f4552433732313a20696e76616c696420746f6b656e2049440000000000000000600082015250565b60006129ef6018836120fb565b91506129fa826129b9565b602082019050919050565b60006020820190508181036000830152612a1e816129e2565b9050919050565b7f4552433732313a2061646472657373207a65726f206973206e6f74206120766160008201527f6c6964206f776e65720000000000000000000000000000000000000000000000602082015250565b6000612a816029836120fb565b9150612a8c82612a25565b604082019050919050565b60006020820190508181036000830152612ab081612a74565b9050919050565b600082905092915050565b60008190508160005260206000209050919050565b60006020601f8301049050919050565b600082821b905092915050565b600060088302612b247fffffffffffffffffffffffffffffffffffffffffffffffffffffffffffffffff82612ae7565b612b2e8683612ae7565b95508019841693508086168417925050509392505050565b6000819050919050565b6000612b6b612b66612b61846121a2565b612b46565b6121a2565b9050919050565b6000819050919050565b612b8583612b50565b612b99612b9182612b72565b848454612af4565b825550505050565b600090565b612bae612ba1565b612bb9818484612b7c565b505050565b5b81811015612bdd57612bd2600082612ba6565b600181019050612bbf565b5050565b601f821115612c2257612bf381612ac2565b612bfc84612ad7565b81016020851015612c0b578190505b612c1f612c1785612ad7565b830182612bbe565b50505b505050565b600082821c905092915050565b6000612c4560001984600802612c27565b1980831691505092915050565b6000612c5e8383612c34565b9150826002028217905092915050565b612c788383612ab7565b67ffffffffffffffff811115612c9157612c90612503565b5b612c9b8254612720565b612ca6828285612be1565b6000601f831160018114612cd55760008415612cc3578287013590505b612ccd8582612c52565b865550612d35565b601f198416612ce386612ac2565b60005b82811015612d0b57848901358255600182019150602085019450602081019050612ce6565b86831015612d285784890135612d24601f891682612c34565b8355505b6001600288020188555050505b50505050505050565b7f6d696e74696e67206e6f7420656e61626c656400000000000000000000000000600082015250565b6000612d746013836120fb565b9150612d7f82612d3e565b602082019050919050565b60006020820190508181036000830152612da381612d67565b9050919050565b7f4e487b7100000000000000000000000000000000000000000000000000000000600052601160045260246000fd5b6000612de4826121a2565b9150612def836121a2565b9250828202612dfd816121a2565b91508282048414831517612e1457612e13612daa565b5b5092915050565b7f77726f6e67206d696e742076616c756500000000000000000000000000000000600082015250565b6000612e516010836120fb565b9150612e5c82612e1b565b602082019050919050565b60006020820190508181036000830152612e8081612e44565b9050919050565b6000612e92826121a2565b9150612e9d836121a2565b9250828201905080821115612eb557612eb4612daa565b5b92915050565b7f736f6c64206f7574000000000000000000000000000000000000000000000000600082015250565b6000612ef16008836120fb565b9150612efc82612ebb565b602082019050919050565b60006020820190508181036000830152612f2081612ee4565b9050919050565b7f657863656564206d61782077616c6c6574000000000000000000000000000000600082015250565b6000612f5d6011836120fb565b9150612f6882612f27565b602082019050919050565b60006020820190508181036000830152612f8c81612f50565b9050919050565b6000612f9e826121a2565b91507fffffffffffffffffffffffffffffffffffffffffffffffffffffffffffffffff8203612fd057612fcf612daa565b5b600182019050919050565b7f546f6b656e20646f6573206e6f74206578697374000000000000000000000000600082015250565b60006130116014836120fb565b915061301c82612fdb565b602082019050919050565b6000602082019050818103600083015261304081613004565b9050919050565b600081905092915050565b6000815461305f81612720565b6130698186613047565b945060018216600081146130845760018114613099576130cc565b60ff19831686528115158202860193506130cc565b6130a285612ac2565b60005b838110156130c4578154818901526001820191506020810190506130a5565b838801955050505b50505092915050565b60006130e0826120f0565b6130ea8185613047565b93506130fa81856020860161210c565b80840191505092915050565b7f2e6a736f6e000000000000000000000000000000000000000000000000000000600082015250565b600061313c600583613047565b915061314782613106565b600582019050919050565b600061315e8285613052565b915061316a82846130d5565b91506131758261312f565b91508190509392505050565b7f4f776e61626c653a206e6577206f776e657220697320746865207a65726f206160008201527f6464726573730000000000000000000000000000000000000000000000000000602082015250565b60006131dd6026836120fb565b91506131e882613181565b604082019050919050565b6000602082019050818103600083015261320c816131d0565b9050919050565b7f4f776e61626c653a2063616c6c6572206973206e6f7420746865206f776e6572600082015250565b60006132496020836120fb565b915061325482613213565b602082019050919050565b600060208201905081810360008301526132788161323c565b9050919050565b7f4552433732313a207472616e736665722066726f6d20696e636f72726563742060008201527f6f776e6572000000000000000000000000000000000000000000000000000000602082015250565b60006132db6025836120fb565b91506132e68261327f565b604082019050919050565b6000602082019050818103600083015261330a816132ce565b9050919050565b7f4552433732313a207472616e7366657220746f20746865207a65726f2061646460008201527f7265737300000000000000000000000000000000000000000000000000000000602082015250565b600061336d6024836120fb565b915061337882613311565b604082019050919050565b6000602082019050818103600083015261339c81613360565b9050919050565b7f4552433732313a20617070726f766520746f2063616c6c657200000000000000600082015250565b60006133d96019836120fb565b91506133e4826133a3565b602082019050919050565b60006020820190508181036000830152613408816133cc565b9050919050565b7f4552433732313a207472616e7366657220746f206e6f6e20455243373231526560008201527f63656976657220696d706c656d656e7465720000000000000000000000000000602082015250565b600061346b6032836120fb565b91506134768261340f565b604082019050919050565b6000602082019050818103600083015261349a8161345e565b9050919050565b7f4e487b7100000000000000000000000000000000000000000000000000000000600052601260045260246000fd5b600081519050919050565b600082825260208201905092915050565b60006134f7826134d0565b61350181856134db565b935061351181856020860161210c565b61351a81612136565b840191505092915050565b600060808201905061353a6000830187612237565b6135476020830186612237565b61355460408301856122cd565b818103606083015261356681846134ec565b905095945050505050565b60008151905061358081612097565b92915050565b60006020828403121561359c5761359b612061565b5b60006135aa84828501613571565b91505092915050565b7f4552433732313a206d696e7420746f20746865207a65726f2061646472657373600082015250565b60006135e96020836120fb565b91506135f4826135b3565b602082019050919050565b60006020820190508181036000830152613618816135dc565b9050919050565b7f4552433732313a20746f6b656e20616c7265616479206d696e74656400000000600082015250565b6000613655601c836120fb565b91506136608261361f565b602082019050919050565b6000602082019050818103600083015261368481613648565b905091905056fea26469706673582212202cd8b30d1fdf201f232c08baff79c94ad141d7ab5175a8afe6ae8096ca9ce03964736f6c63430008110033",
    "linkReferences": {},
    "deployedLinkReferences": {}
}